{
  "address": "0x8bEe2037448F096900Fd9affc427d38aE6CC0350",
  "abi": [
    {
      "inputs": [],
      "name": "name",
      "outputs": [
        {
          "internalType": "string",
          "name": "",
          "type": "string"
        }
      ],
      "stateMutability": "pure",
      "type": "function"
    }
  ],
  "transactionHash": "0x8d4c2d6282fb09a0865556de9ba6f7ca31d83f9561b63e85b51cf603c695d67c",
  "args": [],
  "numDeployments": 1,
  "solcInputHash": "a89c00f277df8e8890b7a7d529e057e9",
  "bytecode": "0x608060405234801561001057600080fd5b5060fb8061001f6000396000f3fe6080604052348015600f57600080fd5b506004361060285760003560e01c806306fdde0314602d575b600080fd5b604080518082018252600d81527f4d6f636b20636f6e74726163740000000000000000000000000000000000000060208201529051606a91906073565b60405180910390f35b600060208083528351808285015260005b81811015609e578581018301518582016040015282016084565b8181111560af576000604083870101525b50601f01601f191692909201604001939250505056fea264697066735822122077b799606fea0340125ba27f88610607b2f769a7f17de96f5cae2efe35be713164736f6c634300080d0033",
  "devdoc": {
    "kind": "dev",
    "methods": {},
    "version": 1
  },
  "userdoc": {
    "kind": "user",
    "methods": {},
    "version": 1
  },
  "storageLayout": {
    "storage": [],
    "types": null
  }
}